:1000000024C048C047C046C045C09BC243C042C090
:1000100041C040C03FC03EC03DC03CC03BC00000EE
:100020000000370000000000380002020202020255
:10003000020202020102040810202004100801023A
:100040000000040000000000A50311241FBECFE53E
:10005000D2E0DEBFCDBF10E0A0E6B0E0EAE3FBE017
:1000600002C005900D92AA36B107D9F720E0AAE6A2
:10007000B0E001C01D92AD38B207E1F710E0C5E273
:10008000D0E003C02197FE014CD5C432D107D1F78F
:10009000A2D251C5B5CF90E0FC01E25CFF4F349194
:1000A000FC01EC5CFF4F2491FC01E65DFF4FE49105
:1000B000EE2339F1332399F0323071F028F43130E6
:1000C00071F48AB58F770AC0333011F0343039F4C7
:1000D0008CB58F7D8CBD03C08AB58F7D8ABDF0E065
:1000E000EE0FFF1FEC5DFF4FA591B4918FB7F89411
:1000F000EC91611103C020952E2301C02E2B2C936F
:100100008FBF0895482F50E0FA01EC5CFF4F9491A7
:10011000FA01E65DFF4F2491222399F030E0220F8F
:10012000331FF901E25EFF4FA591B491F901EC5D37
:10013000FF4F259134912FB7F894EC91E92BEC9374
:100140002FBF6115710511F460E004C06F3F7105A8
:1001500011F461E0A0CFFA01E25CFF4FE491E230DC
:1001600089F038F4E130C1F48AB580688ABD69BD90
:100170000895E33061F0E43079F48CB580628CBD91
:100180006BBD08958AB580628ABD68BD08958CB53F
:1001900080628CBD6EBD089560387105D4F6D4CFF1
:1001A0003FB7F89480916B0090916C00A0916D0026
:1001B000B0916E0022B708B601FE05C02F3F19F0BE
:1001C0000196A11DB11D3FBFBA2FA92F982F8827D7
:1001D000820F911DA11DB11DBC01CD0146E0660F2E
:1001E000771F881F991F4A95D1F708958F929F9284
:1001F000AF92BF92CF92DF92EF92FF926B017C01A0
:10020000CFDF4B015C01C114D104E104F104E9F03A
:10021000C7DFDC01CB0188199909AA09BB09883E0F
:100220009340A105B10578F321E0C21AD108E10895
:10023000F10888EE880E83E0981EA11CB11CC11441
:10024000D104E104F10421F7DECFFF90EF90DF90BD
:10025000CF90BF90AF909F908F9008958F929F9274
:10026000AF92BF92CF92DF92EF92FF92CF93DF9344
:10027000EC016A017B0120E030E040E05FE36E8149
:100280007F8188859985E2D39B01AC01C701B601C6
:10029000D0D26B017C0120E030E040E85FE3C5D2C2
:1002A00087FF15C020E030E040E05FE36A817B819A
:1002B0008C819D81CBD3A7019601C8D3A70196015C
:1002C000C5D3A7019601C2D3A70196012BC020E098
:1002D00030E040E050E4C701B60142D26B017C013E
:1002E0008A819B81AC81BD81BC01CD01905820E009
:1002F00030E040E05FE3AAD34B015C01A701960127
:10030000C701B601A3D3A7019601A0D3A701960107
:100310009DD320E030E040E050E422D29B01AC01CC
:10032000C501B40193D3DF91CF91FF90EF90DF909F
:10033000CF90BF90AF909F908F9008958F929F9293
:10034000AF92BF92CF92DF92EF92FF92CF93DF9363
:10035000EC01CB01BA012E813F814885598569D2D4
:1003600020E030E040E85FE3FBD16B017C018A8054
:100370009B80AC80BD80B7FAB094B7F8B0949B0175
:10038000AC0164D3A701960161D3A70196015ED3A6
:1003900020E030E040E85FE3E3D19B01AC01C50120
:1003A000B40154D3DF91CF91FF90EF90DF90CF90C5
:1003B000BF90AF909F908F900895CF92DF92EF9271
:1003C000FF92CF93DF93EC01CB01BA012E813F81E5
:1003D000488559852ED26B017C012A813B814C8155
:1003E0005D8134D3A701960131D3A70196012ED3A5
:1003F000A70196012BD3DF91CF91FF90EF90DF9073
:10040000CF900895CF92DF92EF92FF92CF93DF9338
:10041000C0907D00D0907E00E0907F00F090800042
:1004200020E030E0A901C701B6010CD31816F4F49E
:1004300020E030E040E85FE3C701B60191D160936E
:100440007D0070937E0080937F009093800059D24E
:10045000C62FD0E0BE0181E055DEBE0180E052DE55
:1004600065E070E080E090E0C1DED2CF10927D00C8
:1004700010927E0010927F0010928000DF91CF9149
:10048000FF90EF90DF90CF900895CF92DF92EF92A0
:10049000FF92CF93DF9320E030E04FE753E4609189
:1004A0007D0070917E0080917F0090918000BDD191
:1004B00087FF33C0C0908900D0908A00E0908B0005
:1004C000F0908C00B701A6018FE690E0C7DE609344
:1004D0007D0070937E0080937F009093800011D206
:1004E000C62FD0E0BE0181E00DDEBE0180E00ADE55
:1004F0002AE037ED43EA5BE3C701B60132D16093EE
:10050000890070938A0080938B0090938C0065E043
:1005100070E080E090E06ADEBECF80E090E0AFE780
:10052000B3E480937D0090937E00A0937F00B0930E
:100530008000DF91CF91FF90EF90DF90CF900895F2
:10054000F6D21F920F920FB60F9211242F933F9362
:100550008F939F93AF93BF938091790090917A008E
:10056000A0917B00B0917C0030916A0020E3230FC2
:100570002D3720F44096A11DB11D05C023EB230F9C
:100580004196A11DB11D20936A008093790090933C
:100590007A00A0937B00B0937C0080916B009091D7
:1005A0006C00A0916D00B0916E000196A11DB11D6F
:1005B00080936B0090936C00A0936D00B0936E00DD
:1005C000BF91AF919F918F913F912F910F900FBE4F
:1005D0000F901F90189578948AB582608ABD8AB56D
:1005E00081608ABD83B7826083BF83B7816083BF28
:1005F00089B7826089BF80B7826080BF3298319AA4
:10060000309A379A8CB580648CBD80E090E0A0EA87
:10061000B0E48093750090937600A0937700B09338
:10062000780080E090E0AFE7B3E4809371009093AE
:100630007200A0937300B093740087B3836087BB8C
:1006400024DF60ED77E080E090E0D0DDDBDE00E0ED
:1006500010E01092890010928A0010928B00109284
:100660008C0086B382958170C82F80E0D82F80914E
:10067000870090918800C817D90799F02FB7F89490
:100680008091790090917A00A0917B00B0917C00DC
:100690002FBF8093830090938400A0938500B09334
:1006A00086002FB7F8948091790090917A00A091FC
:1006B0007B00B0917C002FBF40918300509184005B
:1006C0006091850070918600841B950BA60BB70B7B
:1006D000C397A105B10578F18091810090918200C6
:1006E000C817D90741F1D0938200C0938100C1306F
:1006F000D10581F420E030E0A90160917D00709186
:100700007E0080917F00909180008FD0811113C076
:10071000BCDE11C0209779F420E030E0A90160919F
:100720007D0070917E0080917F00909180008AD141
:1007300018160CF467DED0938800C093870001156B
:10074000110509F486CF5CDC84CFEFE6F0E012827D
:1007500013821482158284E690E091838083089549
:100760005058BB27AA270ED033C124D130F029D14D
:1007700020F031F49F3F11F41EF419C10EF4E095FE
:10078000E7FB0FC1E92F35D180F3BA176207730772
:100790008407950718F071F49EF54DC10EF4E095AD
:1007A0000B2EBA2FA02D0B01B90190010C01CA012B
:1007B000A0011124FF27591B99F0593F50F4503ED6
:1007C00068F11A16F040A22F232F342F4427585FC8
:1007D000F3CF469537952795A795F0405395C9F7E0
:1007E0007EF41F16BA0B620B730B840BBAF0915098
:1007F000A1F0FF0FBB1F661F771F881FC2F70EC037
:10080000BA0F621F731F841F48F487957795679509
:10081000B795F7959E3F08F0B3CF9395880F08F0F2
:100820009927EE0F97958795089597D008F481E062
:1008300008950CD0CDC0C5D040F0BCD030F021F42C
:100840005F3F19F0AEC05111F7C0B1C0D2D098F3DC
:100850009923C9F35523B1F3951B550BBB27AA2741
:1008600062177307840738F09F5F5F4F220F331FB3
:10087000441FAA1FA9F333D00E2E3AF0E0E830D07F
:1008800091505040E695001CCAF729D0FE2F27D082
:10089000660F771F881FBB1F261737074807AB0750
:1008A000B0E809F0BB0B802DBF01FF2793585F4FC5
:1008B0002AF09E3F510568F074C0BEC05F3FECF364
:1008C000983EDCF3869577956795B795F7959F5F8A
:1008D000C9F7880F911D9695879597F90895E1E0DE
:1008E000660F771F881FBB1F621773078407BA073D
:1008F00020F0621B730B840BBA0BEE1F88F7E09598
:1009000008957FD088F09F5790F0B92F9927B7515D
:10091000A0F0D1F0660F771F881F991F1AF0BA95C3
:10092000C9F712C0B13081F086D0B1E0089583C01C
:10093000672F782F8827B85F39F0B93FCCF38695B9
:1009400077956795B395D9F73EF490958095709516
:1009500061957F4F8F4F9F4F0895990F0008550F56
:10096000AA0BE0E8FEEF16161706E807F907C0F035
:1009700012161306E407F50798F0621B730B840B3D
:10098000950B39F40A2661F0232B242B252B21F417
:1009900008950A2609F4A140A6958FEF811D811DB7
:1009A000089597F99F6780E870E060E008959FEFF1
:1009B00080EC089500240A941616170618060906F6
:1009C000089500240A9412161306140605060895C5
:1009D000092E0394000C11F4882352F0BB0F40F44D
:1009E000BF2B11F460FF04C06F5F7F4F8F4F9F4F8D
:1009F000089557FD9058440F551F59F05F3F71F00F
:100A00004795880F97FB991F61F09F3F79F0879575
:100A10000895121613061406551FF2CF4695F1DFFE
:100A200008C0161617061806991FF1CF869571058E
:100A3000610508940895E894BB2766277727CB01C2
:100A400097F908958ADF08F48FEF08950AD0C0CF90
:100A5000B1DF28F0B6DF18F0952309F0A2CFA7CFB9
:100A6000EBCFC7DFA8F39923D9F35523C9F3950F2B
:100A700050E0551FAA27EE27FF27BB270024089424
:100A8000679520F4E20FF31FB41F0A1E220F331FD5
:100A9000441FAA1F6695A9F7779530F4F30FB41F8A
:100AA0000A1E121E08F46395330F441FAA1F221F4B
:100AB000769599F7879520F4B40F0A1E121E631FCE
:100AC000440FAA1F221F331F8695A9F7862F712D69
:100AD000602D11249F5750408AF0E1F088234AF09E
:100AE000EE0FFF1FBB1F661F771F881F91505040DE
:100AF000A9F79E3F510570F054CF9ECF5F3FECF3B6
:100B0000983EDCF3869577956795B795F795E795C9
:100B10009F5FC1F7FE2B880F911D9695879597F9DA
:100B20000895EE0FFF1F0590F491E02D099481E0E8
:0A0B300090E0F89400C0F894FFCFA5
:0A0B3A0000000000DD019E012E0105
:00000001FF
